:1000000000207047704708B5406803681B6998472F
:10001000003818BF012008BD10B5144640680368B9
:100020005B689847204610BDFF20704770477047B7
:1000300007B503688DF8071001225B680DF1070111
:10004000984703B05DF804FB004B18470000000020
:1000500000490847000000000148024B184700BF54
:10006000000000000000000010B504461821024BFB
:100070009847204610BD00BF0000000010B50446A0
:100080000821024B9847204610BD00BF0000000029
:1000900070B504460D46164600214068044B98474B
:1000A000324629466068034BBDE87040184700BFE0
:1000B000000000000000000013B5064B0C460122B2
:1000C00001A99847012812BF00209DF80430237031
:1000D00002B010BD0000000008B50E20024B98478A
:1000E000024B186008BD00BF0000000000000000C7
:1000F0000B4681681846014B184700BF00000000FE
:1001000038B5154D6B69F3B1E86808B1134B9847E2
:1001100028690121124B9847E86810EE104A08B18F
:10012000104B98472046104B984709A3D3E900236A
:100130000E4CA04700220E4B0E4CA0470E4B98478A
:1001400000EE100A38BD0024ECE700BFAFF30080DA
:10015000CDCCCCCCCCCCFC3F00000000000000009B
:10016000000000000000000000000000000000008F
:10017000000040400000000000000000012A10B50F
:100180000C4602D10160002010BD022A05D0032ACE
:10019000F9D0002AF7D10260F5E70146024B0420AE
:1001A000984723680360EEE70000000003681847E3
:1001B000012A10B50C4602D10160002010BD022AB0
:1001C00005D0032AF9D0002AF7D10260F5E70146ED
:1001D000024B0420984723680360EEE7000000000C
:1001E0000368184738B50C1A002C134605DD014684
:1001F00022461846024DA8470346181938BD00BFCD
:1002000000000000002810B506D001DA034B984723
:10021000034BBDE81040184710BD00BF00000000B0
:1002200000000000004B18470000000070B50446B5
:1002300000F508764FF0FF324FF0FF33304611499A
:100240008847D4F81C52ADB1D4F81C32BBB1D4F8F5
:10025000183223441D7DD4F818320133C3F3080348
:10026000C4F81832D4F81C32013BC4F81C32D4F85C
:100270001C32EDB23046044B9847284670BD4FF013
:10028000FF35F4E7000000000000000010B500F1A9
:1002900030044FF0FF3320464FF0FF3203498847C8
:1002A0002046BDE81040024B184700BF0000000088
:1002B0000000000038B5044600F508754FF0FF3324
:1002C0004FF0FF3228460A498847D4F81C325BB108
:1002D000D4F81C3243B1D4F818321C44247D28468B
:1002E000044B9847204638BD4FF0FF34F7E700BF76
:1002F0000000000000000000004B18470000000054
:100300000A200021004B18470000000010B5836848
:10031000044613B1032201469847204610BD000051
:1003200010B50446034B40F8043B034B9847204666
:1003300010BD00BF080000000000000010B504461A
:10034000034B984720461421024B9847204610BD86
:10035000000000000000000010B50446034B40F808
:10036000043B034B9847204610BD00BF0800000027
:100370000000000010B50446034B984720461421A6
:10038000024B9847204610BD00000000000000000E
:10039000D0E901239B1A0269B2EBA30F84BF0023AB
:1003A0004375407D7047D0E90132934218BF8360A6
:1003B0000023036183820360704710B5D0E90143D5
:1003C0001B1BB1EBA30F3DBF54F821300068D218BE
:1003D000002038BF801810BD70B5074E051D0446BB
:1003E00031462846054B984700233146236028466E
:1003F000034B9847204670BD00000000000000003D
:10040000000000000022C0E90022C0E902220261CF
:100410008282704738B54FF4807200210C4B04463D
:10042000002598474FF0FF330A49C4E94053C4F808
:100430000851094B04F586709847C4E94655C4E94C
:100440004855064B04F594709847204638BD00BFC8
:10045000000000000000000000000000000000009C
:1004600038B5044600F138054FF0FF3205494FF02A
:10047000FF332846884794F860412846024B984746
:10048000204638BD000000000000000010B5044602
:10049000006818B1A168024B091A9847204610BDA0
:1004A0000000000008B50248024B984708BD00BF95
:1004B000000000000000000008B50248024B984709
:1004C00008BD00BF000000000000000030B58368D8
:1004D00085B003930023D0E900420D68CDE90142C5
:1004E00005604D6845608D688560C1E900338B60AB
:1004F00001A8024B984705B030BD00BF00000000C6
:1005000010B5D0E901431B1BB1EBA30F3DBF03683E
:1005100054F82110D218002038BF505C10BD0000E4
:1005200008B5D0E90132D31AB1EBA30F15D2114BA4
:1005300000229847030612D58F2812D99F2812D976
:10054000BF2812D9C02807D0C12805D0C3280ED98A
:10055000E02828BFE020C0B208BDC120FCE7002091
:10056000FAE78020F8E79020F6E7A020F4E7C22021
:10057000F2E700BF0000000008B5024B0169984790
:1005800008BD00BF0000000073B50569D0E9016334
:100590009B1BB5EBA30F044603D300234375002038
:1005A00016E0012343750D4B9847D22805F101034E
:1005B00010D1236156F825002268031D134401A9B8
:1005C000024413F801099A4201F8010BF9D101988C
:1005D00002B070BD002223616275E0E700000000F8
:1005E00073B50569D0E901639B1BB5EBA30F044606
:1005F00004D3002343750020002118E00123437534
:100600000E4B9847D32805F1010312D169462361A7
:1006100056F82500226800F108031344024413F839
:1006200001099A4201F8010BF9D1DDE9000102B09C
:1006300070BD002223616275DDE700BF000000008D
:1006400070B50669D0E901239B1AB6EBA30F0446E7
:1006500003D300234375002008E00125064B4575B0
:100660009847C0282E4402D12846266170BD002339
:1006700026616375EFE700BF0000000008B5064B78
:100680009847902806D02430C0B201288CBF0020A3
:10069000012008BD0120FCE70000000008B5064B62
:1006A0009847802806D02230C0B201288CBF002095
:1006B000012008BD0120FCE70000000008B5064B42
:1006C000984730B13430C0B203288CBF00200120DD
:1006D00008BD0120FCE700BF0000000008B5064B84
:1006E0009847E02806D03030C0B203288CBF0020E5
:1006F000012008BD0120FCE70000000070B505697D
:10070000D0E901639B1BB5EBA30F044603D3002381
:100710004375002011E0012343750A4B9847D12807
:1007200005F101030AD1236156F8252023681344FB
:1007300098785B7863F30F2000B270BD00222361CC
:100740006275E6E70000000073B50569D0E9016352
:100750009B1BB5EBA30F044604D3002343759FED09
:10076000100A17E0012343750E4B9847CA2805F17C
:10077000010311D1236156F825002268031D13449B
:1007800001A9024413F801099A4201F8010BF9D1B9
:100790009DED010A02B070BD002223616275DEE7A3
:1007A000000000000000000073B50569D0E9016396
:1007B0009B1BB5EBA30F044604D3002343759FEDA9
:1007C000120B18E001234375114B9847CB2805F114
:1007D000010312D16946236156F82500226800F111
:1007E00008031344024413F801099A4201F8010B6B
:1007F000F9D19DED000B02B070BD0022236162753E
:10080000DDE700BFAFF30080000000000000000043
:100810000000000038B50569D0E901239B1AB5EB4B
:10082000A30F044603D30023437500200EE00123E9
:100830004375094B9847E02805F1010307D123616F
:10084000002229462046054B984740B238BD002279
:1008500023616275E9E700BF0000000000000000AE
:1008600038B50569D0E901239B1AB5EBA30F0446FF
:1008700003D30023437500200DE001234375084B8B
:1008800098476B1C024638B9236129462046054B20
:10089000984700F07F0038BD002223616275EAE7C7
:1008A000000000000000000070B50569D0E90123D8
:1008B0009B1AB5EBA30F044603D300234375002016
:1008C0000DE00126084B46759847CC2805EB06033A
:1008D00006D12361324629462046044B984770BD15
:1008E000002223616275EAE70000000000000000BA
:1008F00010B5D0E901431B1BB1EBA30F37BF54F870
:1009000021300020D21803683FBF991848789B5CBB
:1009100040EA032010BD000070B50569D0E901234D
:100920009B1AB5EBA30F044603D3002343750020A5
:100930000DE00126084B46759847CD2805EB0603C8
:1009400006D12361324629462046044B984770BDA4
:10095000002223616275EAE7000000000000000049
:1009600013B5D0E901431B1BB1EBA30F10D254F810
:10097000213001681A44131D0B4401A8114413F8D7
:10098000012D8B4200F8012BF9D1019802B010BD66
:100990000020FBE738B5424B04460D469847002837
:1009A00077D08038C3B2602B75D8602873D8DFE861
:1009B00000F070727272727272727272727272720D
:1009C0007272707272727272727272727272727209
:1009D00072723F727272727272727272727272722A
:1009E00072727272727272727272727272727272E7
:1009F000727270727072484F565D62693539743127
:100A00003539743135393133373B3D484F563135FF
:100A100031357000032038BD0420FCE70520FAE7DB
:100A20000620F8E70920F6E70A20F4E71220F2E7AB
:100A30000022294620461B4B984700F01F0001303A
:100A4000E9E7012229462046164B98470230E2E7A3
:100A5000012229462046144B98470330DBE7012248
:100A600029462046114B98470530D4E701222946F4
:100A700020460C4BF0E70122294620460A4B9847B6
:100A80000430C8E7012229462046084B9847063023
:100A9000C1E70120BFE70020BDE70220BBE700BFA0
:100AA0000000000000000000000000000000000046
:100AB00070B50569D0E901239B1AB5EBA30F044675
:100AC00003D300234375002013E00126124B467523
:100AD0009847DC2805EB06030CD0DD2811D09028C0
:100AE00015D123610022294620460C4B984700F07F
:100AF0000F0070BD3246294620462361084B9847B7
:100B0000F7E72361324629462046064BF7E70022E5
:100B100023616275D7E700BF0000000000000000FD
:100B2000000000000000000038B5037D04460D46BB
:100B30001BB1D0E901239A4202D10023637538BD6D
:100B40009B1A0269B2EBA30FF7D2054B98472860B6
:100B5000637D002BF3D02046024B9847EFE700BFA0
:100B6000000000000000000070B50569D0E9012315
:100B70009B1AB5EBA30F044603D300234375002053
:100B80000DE00126084B46759847CE2805EB060375
:100B900006D12361324629462046044B984770BD52
:100BA000002223616275EAE70000000000000000F7
:100BB00070B50569D0E901239B1AB5EBA30F044674
:100BC00003D300234375002013E00126124B467522
:100BD0009847DE2805EB06030CD0DF2811D08028CB
:100BE00015D123610022294620460C4B984700F07E
:100BF0000F0070BD3246294620462361084B9847B6
:100C0000F7E72361324629462046064BF7E70022E4
:100C100023616275D7E700BF0000000000000000FC
:100C2000000000000000000013B5D0E901431B1BC9
:100C3000B1EBA30F12D254F82130016868461A4470
:100C400002F108030B44114413F8012D8B4200F804
:100C5000012BF9D1DDE9000102B010BD0020002117
:100C6000FAE7000070B50569D0E901239B1AB5EBDE
:100C7000A30F044604D300234375002001460DE072
:100C80000126094B46759847CF2805EB060306D188
:100C90002361324629462046044B984770BD002206
:100CA00023616275E9E700BF00000000000000005A
:100CB00010B5D0E901431B1BB1EBA30F3DBF036887
:100CC00054F82110D218002038BF505610BD000033
:100CD00070B50569D0E901239B1AB5EBA30F044653
:100CE00003D30023437500200DE00126084B467511
:100CF0009847D02805EB060306D1236132462946E2
:100D00002046044B984770BD002223616275EAE7D4
:100D1000000000000000000010B5084B0446984792
:100D2000D62808D1064B0122204621699847431C4A
:100D30005842584110BD0020FCE700BF00000000F1
:100D40000000000010B5084B04469847D72808D18A
:100D5000064B0122204621699847431C58425841BE
:100D600010BD0020FCE700BF0000000000000000F4
:100D700038B50C4B04469847C72811D12569022283
:100D800029462046084B9847013009D1074B0122DC
:100D9000294620469847A0F10C035842584138BDD7
:100DA0000020FCE700000000000000000000000040
:100DB00010B5D0E901431B1BB1EBA30F3DBF036886
:100DC00054F82110D218002038BF505C10BD00002C
:100DD00038B5037D04460D461BB1D0E9012393428B
:100DE00003D100236375002038BD9B1A0269B2EB62
:100DF000A30FF6D2044B98472870637D002BF2D0E6
:100E00002046024B9847EFE700000000000000007A
:100E100070B5037D04460D461BB1D0E90123934212
:100E200003D100236375002070BD06699B1AB6EBE1
:100E3000A30FF6D2012343750C4B9847C22806F145
:100E400001030FD12361002231462046084B984709
:100E500000F001002870637D002BE4D02046054B94
:100E60009847E1E7002023616075F3E70000000088
:100E700000000000000000002DE9F043037D04465F
:100E80000E4685B01BB1D0E90123934205D1002362
:100E90006375002005B0BDE8F08305699B1AB5EBCA
:100EA000A30FF4D20127464B47759847DA28454BE4
:100EB0006CD00BD8A02824D0D9284DD000220135E1
:100EC00041496275256101A898472FE0DB28F5D1DB
:100ED0003D4901A898473A46204621693B4B98472F
:100EE00000250746DFF8FC80DFF8FC90AF4221695F
:100EF0001AD06A1D2046C047014601A8C8470135DF
:100F0000F4E7314901A89847002220462169304B77
:100F100098470025DFF8CC80DFF8CC9000F01F0761
:100F2000EBB29F4221690FD801312161294B01A900
:100F300030469847284B01A89847637D002BA8D0DE
:100F40002046264B9847A5E701352A462046C0474C
:100F5000014601A8C847E3E71B4901A898473A465C
:100F6000204621691A4B984700250746DFF8748010
:100F7000DFF87490EBB2BB422169D5D2AA1C20469F
:100F8000C047014601A8C8470135F3E70E4901A84B
:100F900098473A4620462169114B98470025074655
:100FA000DFF84080DFF84090ABB29F422169BBD9A7
:100FB000EA1C2046C047014601A8C8470135F3E7AF
:100FC0000000000000000000000000000000000021
:100FD0000000000000000000000000000000000011
:100FE0000000000000000000000000002DE9F041BA
:100FF000037D04460E461BB1D0E90123934204D180
:10100000002363750020BDE8F08107699B1AB7EBE8
:10101000A30FF5D2012343751F4B984707F1010831
:1010200090B11E4B022239462046C4F810809847E2
:1010300000231D46C6E90003B560637D002BE1D0A7
:101040002046174B9847DEE72046164B984750B18D
:10105000154B022239462046C4F8108098478D0867
:1010600001F00303E6E72046104B9847054670B1B0
:1010700003223946094B204698470B4B0546072269
:1010800039462046C4F8108098470B46D2E70346FD
:101090006075C4F81080CDE700000000000000007B
:1010A0000000000000000000000000000000000040
:1010B000F8B507460423194E013B00D1FEE7356819
:1010C000BD4202D174682046F8BD25BB3146144BA1
:1010D00041F8087B4FF4846098474FF480620446DF
:1010E000104B294640F8047B98474FF0FF330E4AD7
:1010F000C4F808341368C4F804540133C4F80C5419
:10110000C4F81054C4F81454C4F81854C4F81C5447
:1011100013607460D7E706F58566CDE70000000030
:1011200000000000000000000000000010B50446B0
:10113000006818B1A168024B091A9847204610BDF3
:101140000000000010B50446064B00F59670984765
:10115000054B04F58C709847044B04F5867098474E
:10116000204610BD0000000000000000000000004C
:101170002DE9F84F6FF06043D0E9008A1546AAEBDD
:101180000802B3EBA20F074689464FEAA20402D138
:101190002748284B9847C24514BF22460122A4186D
:1011A000A1EB080B2BD264B39C4228BF1C46224BF8
:1011B000A00098470646214B042006EB0B019847F8
:1011C0002B68BBF1000F03600BF10405AAEB090AC1
:1011D00019DD5A4641463046194B98477019BAF105
:1011E000000F00EB0A0503DD52464946154B9847B0
:1011F000B9684046144BA1EB0801984710E01C4623
:10120000D5E72646D7E7BAF1000F354404DD52464C
:10121000494628460B4B98475544B8F1000FE7D193
:10122000C7E9006506EB8406BE60BDE8F88F00BF25
:1012300001000000000000000000000000000000AD
:101240000000000000000000000000002DE9F7434E
:10125000044616460025184FDFF86080DFF86090DE
:101260000160AE42A16801950FD8636851F8045C33
:10127000C91A891020460139B8472844831B5842AF
:101280005841207503B0BDE8F083E3688B420ED06F
:101290000420C8470560A3680433A360D4E9013182
:1012A000C91A891020460139B8470544D9E71946BB
:1012B00001AA201DC047F1E7000000000000000067
:1012C000000000002DE9F041044600F130070E4611
:1012D00015464FF0FF334FF0FF3238460649884736
:1012E00020462946054B40F8046B98473846BDE830
:1012F000F041034B184700BF000000000000000051
:101300000000000038B5044600F130054FF0FF3210
:1013100007494FF0FF332846884724682846002CA9
:10132000D4BF00240124034B9847204638BD00BF9A
:10133000000000000000000010B504461046D4E98B
:1013400000236FF000449B1AE21A8A4201D2074B35
:101350009847994238BF19465B1804D2A34228BF68
:101360002346184610BD2046FCE700BF00000000E1
:101370002DE9F047D0E901739F4204468846DFF823
:1013800078A00AD039460120D04798F80030037081
:10139000636801336360BDE8F087134A0121134B92
:1013A0009847134B266881469847B91B0144054668
:1013B0000120D04798F80030394603702A46DFF8FC
:1013C0003C803046C0473946421C3846C047074635
:1013D00026B1A1683046074B891B9847C4E90057DE
:1013E0004D44A560D7E700BF0100000000000000E9
:1013F00000000000000000000000000000000000ED
:101400002DE9F047D0E901739F4204468846DFF892
:1014100078A00AD039460120D04798F800300370F0
:10142000636801336360BDE8F087134A0121134B01
:101430009847134B266881469847B91B01440546D7
:101440000120D04798F80030394603702A46DFF86B
:101450003C803046C0473946421C3846C0470746A4
:1014600026B1A1683046074B891B9847C4E900574D
:101470004D44A560D7E700BF010000000000000058
:10148000000000000000000000000000000000005C
:101490002DE9F043037D05460F4685B01BB1D0E929
:1014A0000123934205D100236B75002005B0BDE8F0
:1014B000F08306699B1AB6EBA30FF4D24FF0010834
:1014C0003A4B80F815809847C5284FF000042ED07D
:1014D000C62848D0C42861D1424631462846DFF8A4
:1014E000E480CDE901440394C0470646DFF8D89074
:1014F000E3B29E4229690FD80131296138462C4B4D
:1015000001A998472B4B01A898476B7D002BCCD0A5
:101510002846294B9847C9E7A21C2846C0470DF129
:1015200003018DF8030001A8C8470134E0E74246F3
:1015300031462846214BCDE901440394984706469D
:10154000DFF88080DFF88090A3B2B3422969D3D25C
:10155000E21C2846C0470DF103018DF8030001A8E5
:10156000C8470134F0E7424631462846144BCDE9DE
:101570000144039498470646DFF84880DFF8489016
:10158000A6422969B8D0621D2846C0470DF1030163
:101590008DF8030001A8C8470134F1E70136CDE911
:1015A00001446C752E610394A8E700BF00000000A1
:1015B000000000000000000000000000000000002B
:1015C00000000000000000000000000007B5044B10
:1015D0008DF807100DF10701984703B05DF804FB83
:1015E0000000000010B50446034BC0219847E36893
:1015F0000133E36010BD00BF0000000037B50446B2
:101600000D46074BCC2198472046064B0DF10701AC
:101610008DF807509847E3680133E36003B030BDAD
:1016200000000000000000002DE9F047D0E9017340
:101630009F4204468846DFF878A00AD03946012048
:10164000D04798F800300370636801336360BDE8E9
:10165000F087134A0121134B9847134B26688146A4
:101660009847B91B014405460120D04798F800303F
:10167000394603702A46DFF83C803046C047394679
:10168000421C3846C047074626B1A1683046074B82
:10169000891B9847C4E900574D44A560D7E700BFB0
:1016A0000100000000000000000000000000000039
:1016B0000000000000000000F8B505460E460324B7
:1016C000034F31192846B847013CFAD2F8BD00BF94
:1016D0000000000013B504460191064BCE21984747
:1016E0002046054B01A99847E3680133E36002B047
:1016F00010BD00BF000000000000000070B50546EE
:101700000C46044E0131B047214628463346BDE819
:1017100070401847000000000F2913B504460BD88D
:1017200061F06F018DF804100D4B01A99847E36833
:101730000133E36002B010BDB1F5803F094B08D220
:10174000ADF80410DC2198472046074B01A99847C3
:10175000EDE70191DD2198472046044B01A9F6E70A
:101760000000000000000000000000000000000079
:1017700013B50446ADF80610064BCD219847204618
:10178000054B0DF106019847E3680133E36002B0B1
:1017900010BD00BF00000000000000007E2913B54E
:1017A00004460AD80D4B8DF807100DF10701984734
:1017B000E3680133E36002B010BDFF2903D8084B92
:1017C000C9B29847F7E7B1F5803F03D2054B89B21C
:1017D0009847F0E7044B9847EDE700BF0000000092
:1017E00000000000000000000000000073B50C1EA7
:1017F000054621DB7E2C08DC8DF8044001A9234B33
:101800009847EB680133EB6008E0E317B4F5807F9D
:1018100073F1000204D21E4BE1B2984702B070BDD2
:10182000B4F5803F73F1000303D21A4BA1B298477D
:10183000F4E7194B9847F1E714F11E0FDCDA14F1C5
:10184000800F164B06DBD021984728468DF80440C0
:1018500001A9D4E714F5004F114E0BDBD121ADF8EF
:101860000440984728460DF10501B047284601A9D4
:10187000B047C6E70194D2219847032401AB191958
:101880002846B047013CF9D2BBE700BF000000008A
:101890000000000000000000000000000000000048
:1018A000000000002DE9F84F04460D46DFF88CA03B
:1018B00001EB020BAB4501D1BDE8F88FD4E9018300
:1018C000984509D041460120D0472B7803706368C2
:1018D000013363600135EDE7134A0121134B2046C4
:1018E0009847134B276881469847A8EB07010144A6
:1018F00006460120D0472B784146037032460D4BF7
:10190000384698474146421C0A4B40469847804615
:1019100027B1A1683846084BC91B9847C4E900683D
:101920004E44A660D6E700BF0100000000000000A2
:1019300000000000000000000000000000000000A7
:10194000F7B58D6804461F2D0F68174E0FD865F048
:101950005F038DF8043001A9144B98472A46394695
:101960002046B047E3680133E36003B0F0BDFF2DCC
:101970000F4B06D8D921984720468DF8045001A96D
:10198000EAE7B5F5803F08D2DA2198472046094BAF
:10199000ADF8045001A99847E0E7DB2198472046BD
:1019A000054B019501A9F6E70000000000000000CA
:1019B00000000000000000000000000070B50446B8
:1019C00016461D46074B984720463168064B9847F8
:1019D00020462968054B984720460499044B9847B0
:1019E00070BD00BF0000000000000000000000000B
:1019F0000000000038B50C4605460221074B984709
:101A000054F8041B2846064B984728462146054BA8
:101A100098472846044B984738BD00BF0000000097
:101A2000000000000000000000000000F0B52DEDF7
:101A3000028B0646244B084689B00F461446984749
:101A40000546C0B92149224B01A89847FD2301A9A9
:101A5000049305A81F4B98471F4D01A8A84720468F
:101A60001E4B04A9984705A8A8470025284609B099
:101A7000BDEC028BF0BD0023694600933846184B3D
:101A80009847009B0BB11749DDE7F3680BB9164B7C
:101A900098473369301D9847B0EE408A2046134B73
:101AA00098478DED048ACA212046114B984703269A
:101AB000104F04AB99192046B847013EF9D2E368AC
:101AC0000133E360D2E700BF000000001B0000000C
:101AD0000000000000000000000000000000000006
:101AE000000000003B0000000000000000000000BB
:101AF0000000000000000000F0B51D4B064689B054
:101B000008460F46144698470546B0B919491A4B7E
:101B100001A89847FD2301A9049305A8174B9847EE
:101B2000174D01A8A8472046164B04A9984705A8B9
:101B3000A8470025284609B0F0BD00236946009358
:101B40003846114B9847009B0BB11049DFE7F3680B
:101B50000BB90F4B98473369301D984706460D4B1C
:101B600020469847314620460B4B9847E2E700BF96
:101B7000000000001B00000000000000000000004A
:101B80000000000000000000000000003B0000001A
:101B900000000000000000000000000038B50569EA
:101BA000D0E901239B1AB5EBA30F044603D300230E
:101BB000437500201CE001234375214B984728B34F
:101BC00000F13403DBB2142B35D8CC38142832D8CA
:101BD000DFE800F01F22252B0F12151831313131AB
:101BE00031313131313131310B002046154B9847BD
:101BF00038BD2046144BFAE72046144BF7E7204641
:101C0000134BF4E72046134B9847F1E72046124B5D
:101C1000EDE72046114BEAE72046114BE7E7204667
:101C2000104B984720EAE070E2E720460E4B9847B9
:101C30000029DDDABDE70023013563752561B8E7CA
:101C40000000000000000000000000000000000094
:101C50000000000000000000000000000000000084
:101C600000000000000000000000000038B5037D07
:101C700004460D461BB1D0E90123934203D1002352
:101C80006375002038BD9B1A0269B2EBA30FF6D230
:101C9000044B98472860637D002BF2D02046024B0E
:101CA0009847EFE7000000000000000038B5056924
:101CB000D0E901239B1AB5EBA30F044604D30023FC
:101CC00043759FED2F0A21E0012343752D4B984763
:101CD000A8B100F13603DBB2162B4BD8CA38162850
:101CE00048D8DFE800F03B3F14171A1D2D3033367B
:101CF0004747474747474747474747472500204605
:101D0000214B984700EE100AB8EE400A38BD204635
:101D10001E4BF6E720461E4BF3E720461D4BF0E72F
:101D20001D4B204698471D4B984700EE100AEDE7E3
:101D300020461B4B984700EE100AB8EEC00AE5E7B4
:101D40002046184BF6E72046174BF3E72046174B83
:101D5000F0E7174B20469847164BE5E72046164B11
:101D60009847D3E72046154B9847154B51EC100B7D
:101D70009847DAE70023013563752561A1E700BFC5
:101D80000000000000000000000000000000000053
:101D90000000000000000000000000000000000043
:101DA0000000000000000000000000000000000033
:101DB0000000000000000000000000000000000023
:101DC000000000000000000038B50569D0E90123DB
:101DD0009B1AB5EBA30F044604D3002343759FED74
:101DE0002C0B21E0012343752B4B9847A8B100F140
:101DF0003603DBB2162B46D8CA38162843D8DFE89C
:101E000000F0363E14171A1D282B2E314242424252
:101E10004242424242424242230020461F4B9847E0
:101E20001F4B984741EC100B38BD20461D4BF6E781
:101E300020461D4BF3E720461C4BF0E71C4B204689
:101E400098471C4B9847EDE720461B4B98471B4B88
:101E5000E7E720461A4BF9E720461A4BF6E72046FB
:101E6000194BF3E7194B20469847194BEAE72046F0
:101E7000184B9847184B10EE100A9847D2E72046A7
:101E8000164B9847D0E70023013563752561A6E717
:101E90000000000000000000000000000000000042
:101EA0000000000000000000000000000000000032
:101EB0000000000000000000000000000000000022
:101EC0000000000000000000000000000000000012
:101ED0000000000000000000000000000000000002
:101EE00070B5037D04460E4615461BB1D0E90123AB
:101EF000934203D100236375002070BD9B1A0269D1
:101F0000B2EBA30FF6D2054B98473060637D002BF0
:101F1000F2D029462046024B9847EEE70000000029
:101F200000000000F8B506460F4615460024AC42F6
:101F300001D32046F8BD30682A1B036839199B6815
:101F400098470444F3E700002DE9F04104460020DF
:101F50001D4688B0D4F81874CDE90300CDE905001A
:101F60000790009102AB042104A81646DFF85880C0
:101F700003AA0297C04701210F4B04A8984729469E
:101F80000E4B04A89847DDE904156D1A2A46204631
:101F90000B4B984785420B4A04D004A8904708B0E1
:101FA000BDE8F081D4F8183404A80133C4F818341B
:101FB00090473760F3E700BF00000000000000001A
:101FC0000000000000000000000000002DE9F041CA
:101FD0000025044688B0D0F8187402AB009104A81C
:101FE00004211646DFF8548003AACDE90355CDE954
:101FF000055507950297C04729460D4B04A89847F9
:10200000DDE904156D1A2A4620460A4B9847854299
:10201000094A04D004A8904708B0BDE8F081D4F87C
:10202000183404A80133C4F8183490473760F3E734
:1020300000000000000000000000000000000000A0
:102040002DE9F041044600201D4688B0D4F81874EC
:10205000CDE90300CDE905000790009102AB042112
:1020600004A81646DFF8588003AA0297C04701214A
:102070000F4B04A8984729680E4B04A89847DDE940
:1020800004156D1A2A4620460B4B984785420B4A89
:1020900004D004A8904708B0BDE8F081D4F8183403
:1020A00004A80133C4F8183490473760F3E700BF41
:1020B0000000000000000000000000000000000020
:1020C0000000000008B5D1F804315A1C09D0D1E94C
:1020D00046128A4205D0022B03D00068014B521AE7
:1020E000984708BD000000002DE9F041044600F1CA
:1020F00030070E4615464FF0FF334FF0FF3238469B
:102100000649884720462946054B40F8046B984706
:102110003846BDE8F041034B184700BF00000000FF
:1021200000000000000000002DE9FF410446884641
:10213000002517461E46144B98474146C4E90455EE
:10214000124B04F1180098470A9B2946E36204F1F8
:10215000300314221846C4E909760D4DA8470B9A9E
:102160000C4B626498470C490C4B01A89847FF211F
:10217000204601AA0A4B98470A4B01A898472046D7
:1021800004B0BDE8F08100BF0000000000000000C6
:1021900000000000000000004F00000000000000F0
:1021A000000000000000000038B5044600F13005D2
:1021B0004FF0FF3207494FF0FF3328468847246825
:1021C0002846002CD4BF00240124034B9847204606
:1021D00038BD00BF0000000000000000034670B5DD
:1021E00008465418D3F804148C421DD8B8B16FF0C7
:1021F00003060432091A1A44F61AB518A9420FD870
:10220000D3F81024C3F8041494428DBF0022121A8C
:10221000C3F81024C3F8102488BFC3F8142470BD79
:10222000155C02F8015BE8E70020F8E710B5094B00
:102230000022D0F80C14044698474FF0FF33C4F83E
:1022400008340023C4F80C34D4F81C340133C4F827
:102250001C3410BD000000002DE9F041037D044650
:102260000D4616461BB1D0E90123934203D100234A
:10227000637500202AE09B1A02694FEAA308B2EBBB
:10228000A30FF4D2124A134F136813F0010302BFD5
:102290003B6001231360104B9847637D3860002B2F
:1022A000E7D023699845E2D90C4B2046984728602F
:1022B000637D002BDDD00A4B2046291D9847637DA6
:1022C000002BD6D031462046064B9847BDE8F0811A
:1022D00000000000000000000000000000000000FE
:1022E00000000000000000002DE9F04105460E4608
:1022F00000241C27DFF82080D5F8F03AA34202D84A
:102300000020BDE8F081314607FB0450C04700289B
:10231000F7D10134F0E700BF000000007FB50646AA
:10232000134B14209847002504466946114B04209E
:10233000CDE90055CDE902559847066020460E4B81
:102340000E4A039340F8042B0D4B02226946656048
:10235000C0E90155256102939847039B68462361B4
:10236000029BE360074B9847204604B070BD00BF56
:102370000000000000000000000000000800000055
:1023800000000000000000007FB50646134B14203B
:102390009847002504466946114B0420CDE90055B5
:1023A000CDE902559847066020460E4B0E4A03932E
:1023B00040F8042B0D4B022269466560C0E90155C7
:1023C000256102939847039B68462361029BE36063
:1023D000074B9847204604B070BD00BF00000000C6
:1023E00000000000000000000800000000000000E5
:1023F0000000000038B50569D0E901239B1AB5EB50
:10240000A30F044603D300234375002013E00123E8
:102410004375124B984758B100F13403DBB2032BDC
:1024200017D8CD38022807D8DFE800F0090C0F00D4
:1024300020460B4B984738BD20460A4BFAE720460A
:10244000094BF7E72046094BF4E72046084B98472D
:10245000F1E70023013563752561D6E70000000030
:10246000000000000000000000000000000000006C
:102470000000000070B5037D04460E4615461BB1F2
:10248000D0E90123934203D100236375002070BD7E
:102490009B1A0269B2EBA30FF6D2054B9847306046
:1024A000637D002BF2D029462046024B9847EEE789
:1024B00000000000000000002DE9F041D1F80C748C
:1024C0000446032F0D462A4E8CB006D820462949D3
:1024D000B04720460CB0BDE8F081D1F8083433F0A5
:1024E0000208F3D1244B06A89847244B06A8984726
:1024F0003A46234B291D06A8984748B92846214B40
:10250000984720461B49B0471F4B07A89847E0E76C
:10251000184903A8B0476A461C4B01A906A8CDF884
:102520000480984748B92846164B984720461149D9
:10253000B047174B03A89847E6E7009B73B9019B88
:10254000042BF0D1134B03AA02A906A89847002830
:10255000E9D02046104B03A99847EAE7022BE2D1C5
:10256000019B032BDFD10D4B03A906A89847EEE78B
:10257000000000000000000000000000000000005B
:10258000000000000000000000000000000000004B
:10259000000000000000000000000000000000003B
:1025A000F0B5D0F80051044687B01DB90025284683
:1025B00007B0F0BD00F5947630461E4B98472A468A
:1025C000214630461C4B98470028EFD01B491C4B36
:1025D00003A8984700236A4602933046194B02A984
:1025E0009847054620B90025174B03A89847DEE712
:1025F000009FA7B9029B042BF5D13046134B03AAC9
:1026000001A998470028EED0114B03A904F5867064
:102610009847019BC4F80471C4F80831E4E7022F1D
:10262000E1D1029B032BDED130460A4B03A9984728
:10263000E8E700BF0000000000000000000000000C
:10264000000000000000000000000000000000008A
:1026500000000000000000002DE9F047374B06465F
:1026600088B008460C46984704F5867804F59477B8
:10267000C0B94FF0FF333249C4E94130C4F800011A
:10268000304B40469847304B38469847D4E946325D
:10269000934218BFC4F81C310023C4F8243108B099
:1026A000BDE8F087D4E94632934218BFC4F81C3124
:1026B0000023C4F82431D4F8043104F58C7563B9CF
:1026C00004212846214B984701212846204B984752
:1026D0002846D4F808111F4B98470024DFF888A03B
:1026E00006F10409D6F8F43A41469C4212D31A4B3B
:1026F00001A89847FE2301A9049305A8174B984702
:102700002846174B04A99847164C05A8A04701A8CE
:10271000A047C4E74846D04709F11C0958B11C231B
:102720002A46394603FB0464E06903689B6808B0E5
:10273000BDE8F04718470134D4E700BF00000000AF
:102740000000000000000000000000000000000089
:102750000000000000000000000000000000000079
:1027600000000000000000000000000038B5037DFC
:1027700004460D461BB1D0E90123934203D1002347
:102780006375002038BD9B1A0269B2EBA30FF6D225
:10279000044B98472860637D002BF2D02046024B03
:1027A0009847EFE700000000000000002DE9F0412D
:1027B0001E46037D0446884617461BB1D0E9013505
:1027C0009D4204D1002363750020BDE8F081ED1A1D
:1027D0000369B3EBA50FF5D20F4B9847C8F800007B
:1027E000637D002BF0D0237D002BEBD0D4E90130AA
:1027F0008342E7D0C01A2369B3EBA00FE2D2074BA4
:10280000204698473860637D002BDDD03146204656
:10281000034B9847D9E700BF00000000000000000C
:10282000000000002DE9F043D0F8146404460F4680
:1028300090461D468BB096B14A4B04A898474A4B28
:1028400004A89847D4F81034211D19443246474B48
:1028500004A8984738B90026454B05A89847304644
:102860000BB0BDE8F0834FF00009424E03AB02AA63
:1028700001A904A8CDF80490B04706460028EAD084
:10288000039BBB42E7D1029B3B4F012B1BD0284649
:10289000FC233A4940F8043B394B98472046D4F88A
:1028A0001024D4F81414B847D4F810342BB94FF0CE
:1028B000FF32C4F80C34C4F80824D4F81C340133B3
:1028C000C4F81C34C8E7019B042B05D02846FC2320
:1028D0002C4940F8043BDFE72B4B04A88DF800900F
:1028E0009847C02831D19DF824301BB1DDE905237C
:1028F0009A4208D100238DF825302846FC2323492D
:1029000040F8043BC8E79B1A089AB2EBA30FF1D238
:102910001F4B04A898479DF825308DF80000002B28
:10292000EBD041461B4B04A898470028E5D0D4F8CB
:1029300010242AB94FF0FF33C4F80C24C4F808342B
:102940002046D4F81414B84786E76A462946124B45
:1029500004A898470028EAD12846FC230F4940F8EC
:10296000043B99E7000000000000000000000000A8
:102970000000000000000000000000006D000000EA
:10298000000000008600000000000000A30000001E
:10299000000000000000000000000000C400000073
:1029A0002DE9F043D0F8146404460F4690461D46C6
:1029B0008BB096B14A4B04A898474A4B04A8984755
:1029C000D4F81034211D19443246474B04A89847C7
:1029D00038B90026454B05A8984730460BB0BDE8EE
:1029E000F0834FF00009424E03AB02AA01A904A8EC
:1029F000CDF80490B04706460028EAD0039BBB42BE
:102A0000E7D1029B3B4F012B1BD02846FC233A49C0
:102A100040F8043B394B98472046D4F81024D4F8AA
:102A20001414B847D4F810342BB94FF0FF32C4F85F
:102A30000C34C4F80824D4F81C340133C4F81C3412
:102A4000C8E7019B042B05D02846FC232C4940F8FD
:102A5000043BDFE72B4B04A88DF800909847C02873
:102A600031D19DF824301BB1DDE905239A4208D10C
:102A700000238DF825302846FC23234940F8043BE9
:102A8000C8E79B1A089AB2EBA30FF1D21F4B04A818
:102A900098479DF825308DF80000002BEBD041467B
:102AA0001B4B04A898470028E5D0D4F810242AB975
:102AB0004FF0FF33C4F80C24C4F808342046D4F88F
:102AC0001414B84786E76A462946124B04A898476B
:102AD0000028EAD12846FC230F4940F8043B99E737
:102AE00000000000000000000000000000000000E6
:102AF00000000000000000006D0000000000000069
:102B00008600000000000000A3000000000000009C
:102B10000000000000000000C400000038B50C1ADE
:102B2000134605D0014622461846024DA8470346E3
:102B3000181938BD0000000038B50C1A134605D02E
:102B4000014622461846024DA8470346181938BDCB
:102B5000000000002DE9F74F9846002308F1010A14
:102B60009A45044689461746C0E90033836002DA75
:102B70002F48304B984713D02F4B50469847266824
:102B800005460246616830462C4B984726B1A1683D
:102B900030462B4B891B9847C4E900555544A56026
:102BA0002046284B0DF1070107EB080B8DF8079025
:102BB0009847BB4516D0D4E901639B1B9845DFF8C5
:102BC00090A0DFF8909011D8324659463846D04749
:102BD00062683146424462603046C84732463946F0
:102BE0003846D047204603B0BDE8F08F4146164A2C
:102BF000164B20469847104B804698473146024670
:102C000005462068C847594602463846D04761689D
:102C100002463046C8470646206818B1A168084BEE
:102C2000091A9847C4E900564544A560DAE700BF91
:102C3000E8000000000000000000000000000000AC
:102C40000000000000000000F8000000000000008C
:102C500000000000000000002DE9F8430D69D1E9F3
:102C600001239B1AB5EBA30F06460C4605D30023A0
:102C70004B75C6E90033B36026E0012308464B7567
:102C80004C4B9847C7386F1C112800F28F80DFE843
:102C900000F05A6F7E8D8D8D8D8D8D8D8D8D8D0972
:102CA0001E2D3C4B01222946434B204698470222C9
:102CB000424B804629462046276198470123024619
:102CC000414630463E4CA0473046BDE8F8830122DD
:102CD0002946394B204698470222384B80462946E0
:102CE00020462761984702230246E9E70122294648
:102CF000314B204698470222304B804629462046D9
:102D00002761984704230246DAE7012229462A4B25
:102D1000204698470222294B8046294620462761B3
:102D2000984708230246CBE701222946224B20463A
:102D300098470222214B8046294620462761984722
:102D400010230246BCE7012229461E4B2046984725
:102D50000222814629462046174B98470322804687
:102D60002761164B2946204698474B460246A7E75F
:102D700001222946144B20469847032281462946C2
:102D800020460D4B9847042280462761E9E701223F
:102D900029460E4B20469847052281462946204663
:102DA000054B9847062280462761DAE70023276112
:102DB00063755EE7000000000000000000000000F6
:102DC0000000000000000000000000000000000003
:102DD0002DE9F043784B85B004469847C028064655
:102DE00004D120467549764B984731E0C22803D17B
:102DF00020467449744BF7E72046744B984720B936
:102E00002046734B9847054618B120467149724BCE
:102E1000EAE7CA2E1ED1237D1BB1D4E901239A42D1
:102E200005D100236375284605B0BDE8F0839B1AE1
:102E30002269B2EBA30FF4D2684B20469847684B47
:102E400083ED000A637D002BEDD02046654B98474B
:102E50000546E8E7CB2E12D1237D002BE1D0D4E943
:102E600001239A42DDD09B1A2269B2EBA30FD8D27C
:102E70005D4B204698475D4B83ED000BE2E7A02EAB
:102E800021D006F12703DBB2022B1CD906F13C034B
:102E9000DBB2022B28D92046554B9847074600281D
:102EA0003ED000252046534B019501A998472E4658
:102EB000DFF8A881DFF8A891019BC8F800509E4276
:102EC00024D33D46AFE74C4D2B68DA0708D44B4B73
:102ED0004B494C48984701234B482B604B4B984734
:102EE000204648494A4B7FE74A490B68DB0709D42B
:102EF0000022494B4948C3E900229A6001230B6034
:102F0000424B984720464449454B6DE72046C84709
:102F10000546002887D0D8F8003001365D1CCBE785
:102F20002046404B984718B120463F493F4B5BE74E
:102F300006F12C03DBB2042B15D93936F6B2022E7A
:102F400011D920463A4B984748B92046394B984703
:102F500028B92046384B984700283FF464AF2046F4
:102F60003649374B40E737490B6813F0010308D166
:102F7000354A3648C2E90033936001230B60234B86
:102F80009847237D002B3FF44CAFD4E901239A42AC
:102F90003FF447AF9B1A2269B2EBA30FBFF441AFD6
:102FA000214601A82A4B984727482A4B01A9984750
:102FB000294B01A8984745E70000000000000000E9
:102FC0000000000000000000000000000000000001
:102FD00000000000000000000000000000000000F1
:102FE00000000000000000000000000000000000E1
:102FF00000000000000000000000000000000000D1
:1030000000000000000000000000000000000000C0
:1030100000000000000000000000000000000000B0
:1030200000000000000000000000000000000000A0
:103030000000000000000000000000000000000090
:103040000000000000000000000000000000000080
:103050000000000000000000000000000000000070
:10306000000000002DE9F04FD0F80C340446032B8B
:1030700089B05AD9D0F81434002B6BD1D0F8106431
:103080003A4B02A898474FF0FF38002504F1040995
:10309000DFF8FCA0B144D4F8042473199A4256D93D
:1030A00002A80135D0472A464946314B02A8984725
:1030B0000028F0D02F4B02A898470028EBD000231F
:1030C0006946009302A82C4B9847009FD7B12B4B21
:1030D00002A8984718B92A4B02A8984738B3294B39
:1030E00001A902A89847012FDDF804800AD0012722
:1030F000DFF8A0B002A8D8470028CCD0009B013749
:103100009F42F7D3B8F1020F17D814D0042F14D16F
:103110001EB9C4F80884C4F80C54B8F1010F21D1C9
:10312000C4F81064C4F8145411E00026A8E7074658
:103130006FF00108DCE7032F0FD0134B324629460E
:1031400020469847D4F81C340133C4F81C340F4B84
:1031500003A8984709B0BDE8F08F1EB9C4F80884E9
:10316000C4F80C543544C4F81054F0E700000000D3
:10317000000000000000000000000000000000004F
:10318000000000000000000000000000000000003F
:10319000000000000000000038B504460068036825
:1031A0005B69984790B1D4F80434B3F5806F0DD0C3
:1031B000214651F8040B02681944D568C3F58062B2
:1031C000A847D4F804340344C4F804342046014B1F
:1031D000984738BD000000002DE9F043064685B051
:1031E0000068274B90460D4698473168254B01A84B
:1031F00098472549254B01A89847044630B9DFF880
:103200009890371DD6F8F43A9C4207D30024204BFF
:1032100001A89847204605B0BDE8F083384601A9CB
:10322000C84710B901341C37ECE7414607F10C00E0
:10323000C8470028F6D03068D0F8083433F00203CD
:103240001CD1D0F80C140A1FFC2A17D82B46C21C1C
:103250004C1912F8016F03F8016BA342F9D14FF03A
:10326000FF330022C0F80834C0F80C24094B9847FB
:10327000041E18BF0124C5F80001C8E70020F7E7C5
:10328000000000000000000000000000000000003E
:103290000000000000000000000000002DE9F041E7
:1032A00000F110060446D4B0642200233046DFF853
:1032B0009880C047C8B9194B04A898476568184951
:1032C000184B01A898472846174B01AA04A998470C
:1032D0000746164B01A89847154D304647B9A847F1
:1032E000144B9847144B04A8984754B0BDE8F0819C
:1032F000A8476068114B04A99847114F04F12406B0
:10330000642200233046C04730B960680D4B04A9E1
:1033100098473046A847E5E7B847F1E700000000C6
:10332000100100000000000000000000000000008C
:10333000000000000000000000000000000000008D
:1033400000000000000000000000000008B5054B70
:1033500098470548054B984710B10348044B9847D8
:1033600008BD00BF000000000000000000000000D9
:10337000000000002DE9F04100F110060446D4B031
:10338000642200233046DFF89880C047C8B9194B43
:1033900004A8984765681849184B01A8984728461B
:1033A000174B01AA04A998470746164B01A898474E
:1033B000154D304647B9A847144B9847144B04A8FD
:1033C000984754B0BDE8F081A8476068114B04A944
:1033D0009847114F04F12406642200233046C04769
:1033E00030B960680D4B04A998473046A847E5E717
:1033F000B847F1E7000000000000000000000000F6
:1034000000000000000000000000000000000000BC
:1034100000000000000000000000000000000000AC
:103420000000000008B5054C054D064E2046A84793
:1034300008B12046B047044B9847F7E7000000006A
:1034400000000000000000000000000010B50B4864
:103450000B4B98470B4B0E2098470B4B632818607B
:10346000D8BF01214FF00700084BC8BF0021984783
:10347000BDE810404FF4FA70054B184700000000FB
:10348000000000000000000000000000000000003C
:1034900000000000F8B50E46044617461D460068B9
:1034A000094B984731462B46084E3A462068B047AC
:1034B000064638B1294651F8043B44F8043F201D24
:1034C000034B98473046F8BD0000000000000000A4
:1034D0000000000000232DE9F0470122044688B0D7
:1034E0008DF8003000F11403D3E8EF1F002903D159
:1034F000C3E8E02F0028F7D13CD12F4F2F4D642295
:103500000023E06AB84700284AD1606A636C00680B
:103510002B4D04F1100204F11801A847E06A294D6F
:10352000A847DFF89880DFF8BC90DFF8BCA06422E1
:103530000023A06AB84700283BD104A8C8476A46C0
:103540002169606A04ABD0471F4E00282AD0A06AC8
:10355000A847049D1D4B05A901A898471C4B294667
:1035600001AA2046984701A8B04705A8B0472046C1
:10357000184B0AE01849194B04A898472046144BE9
:10358000FF2104AA9847104B04A898470E4D04F158
:103590001800A847201DA847204608B0BDE8F087BE
:1035A000A847ACE7A06AA8470D4B984705A8B047C5
:1035B000BDE7C047BBE700BF0000000000000000FF
:1035C00000000000000000000000000000000000FB
:1035D00000000000000000001901000000000000D1
:1035E000000000000000000000000000F8B50E46DA
:1035F000044617461D460068094B984731462B463E
:10360000084E3A462068B047064638B1294651F878
:10361000043B44F8043F201D034B98473046F8BD57
:103620000000000000000000000000002DE9F04F45
:10363000012204460F4689B000F11403D3E8EF1FBE
:10364000002903D1C3E8E02F0028F7D10CBF1546AD
:10365000002540D1DFF8DC802C4D64220023E06A95
:10366000C047002847D1636A04F11002186804F1CA
:103670001801274B9847274DE06AA847DFF88C9040
:10368000DFF8B4A0DFF8B4B064220023A06AC0471A
:10369000002839D104A8D0473A462169606A04ABB2
:1036A000D8471D4E002828D0A06AA847049D1B4B70
:1036B00005A901A898472946194B01AA2046984711
:1036C00001A8B04705A8B0472046164B984780F0A0
:1036D0000100C0B20CE01449144B04A89847FF2124
:1036E00020460F4B04AA98470B4B04A8984728463E
:1036F00009B0BDE8F08FA847AFE7A06AA8470C4B18
:10370000984705A8B047BFE7C847BDE700000000DD
:1037100000000000000000000000000000000000A9
:10372000000000000000000019010000000000007F
:103730000000000000000000000000000000000089
:103740002DE9F04F012204460F4689B000F1140321
:10375000D3E8EF1F002903D1C3E8E02F0028F7D1F9
:103760000CBF1546002541D1DFF8E0802D4D6422C5
:103770000023E06AC047002848D1606A636C006893
:10378000294D04F1100204F11801A847E06A274D01
:10379000A847DFF89090DFF8B8A0DFF8B8B064224F
:1037A0000023A06AC047002839D104A8D0473A4670
:1037B0002169606A04ABD8471D4E002828D0A06A52
:1037C000A847049D1B4B05A901A8984729461A4BF9
:1037D00001AA2046984701A8B04705A8B04720464F
:1037E000164B984780F00100C0B20CE01449154B0D
:1037F00004A89847FF2120460F4B04AA98470C4B7A
:1038000004A89847284609B0BDE8F08FA847AEE75E
:10381000A06AA8470C4B984705A8B047BFE7C84720
:10382000BDE700BF00000000000000000000000035
:103830000000000000000000000000000000000088
:10384000190100000000000000000000000000005E
:1038500000000000000000002DE9F8431A4B044668
:103860000F469847064618B900263046BDE8F8834B
:10387000237D1BB1D4E901239A4215D1002565753A
:1038800000239846DFF84C90A8453B60EDD02046D9
:10389000C8470028E8D02046C8470028E4D03B6845
:1038A00008F101080133EFE79B1A2269B2EBA30F7D
:1038B000E4D2064B20469847637D0546002BDFD0B7
:1038C0002046034B9847DBE70000000000000000A3
:1038D00000000000000000002DE9F04304460D4602
:1038E0001646DFF89490DFF8948085B000F1240745
:1038F000642200233846C847002831D12368CDE927
:103900000000CDE90200DFF8789068460321D3F883
:103910000080C847134B684602219847124C29463D
:103920006846A04768460121C84731466846A04717
:10393000DDE90014641A0D4B224640469847844244
:1039400008BFD8F81834684604BF0133C8F81834E3
:10395000074B98473846074B05B0BDE8F04318477A
:10396000C047C5E7000000000000000000000000A4
:103970000000000000000000000000000000000047
:10398000000000002DE9F041044600F130070E462A
:1039900015464FF0FF334FF0FF323846064988474F
:1039A00020462946054B40F8046B98473846BDE849
:1039B000F041034B184700BF00000000000000006A
:1039C000000000002DE9F043D0F8146404460F46CF
:1039D00090461D468BB096B14A4B04A898474A4B77
:1039E00004A89847D4F81034211D19443246474B97
:1039F00004A8984738B90026454B05A89847304693
:103A00000BB0BDE8F0834FF00009424E03AB02AAB1
:103A100001A904A8CDF80490B04706460028EAD0D2
:103A2000039BBB42E7D1029B3B4F012B1BD0284697
:103A3000FC233A4940F8043B394B98472046D4F8D8
:103A40001024D4F81414B847D4F810342BB94FF01C
:103A5000FF32C4F80C34C4F80824D4F81C34013301
:103A6000C4F81C34C8E7019B042B05D02846FC236E
:103A70002C4940F8043BDFE72B4B04A88DF800905D
:103A80009847C02831D19DF824301BB1DDE90523CA
:103A90009A4208D100238DF825302846FC2323497B
:103AA00040F8043BC8E79B1A089AB2EBA30FF1D287
:103AB0001F4B04A898479DF825308DF80000002B77
:103AC000EBD041461B4B04A898470028E5D0D4F81A
:103AD00010242AB94FF0FF33C4F80C24C4F808347A
:103AE0002046D4F81414B84786E76A462946124B94
:103AF00004A898470028EAD12846FC230F4940F83B
:103B0000043B99E7000000000000000000000000F6
:103B10000000000000000000000000006D00000038
:103B2000000000008600000000000000A30000006C
:103B3000000000000000000000000000C4000000C1
:103B40002DE9F04FA3B003AF0C46154680469049CF
:103B50003846904EB047DFF880922544AC4275D18C
:103B60004FF0000A98F83532D8F810508A4C8B493B
:103B7000CDF808A0002B00F00181A94606A8B047A7
:103B8000DFF8588259F810BB10A8C0472435844B81
:103B900006A9CDE914AA16A8984714225146814BCC
:103BA0001B95CDE919B91CA898477F4B1CA82197F4
:103BB00098477E490CA8B0477D4DFF210CAA10A85C
:103BC000A8470CA8A047012315A9D1E8EF2F52451B
:103BD00003D1C1E8E03F0028F7D13CD1DFF8E09104
:103BE000744D642200231B98C847002840F085804C
:103BF0001998219B006814AA16A96F4DA8471B9815
:103C00006E4B9847DFF8AC91DFF8D4A16422002313
:103C10001A986B498847002840F08D800CA8C0474F
:103C2000199DDDF850B02868D04759462868DFF85C
:103C3000B4B10CAB02AAD847002860D11A985F4BE8
:103C40009847604B98470DA8A047DFE7384614F81F
:103C5000011BC84782E75C490CA8B04710A8FF21A8
:103C60000CAAA8470CA8A04700238DF80430012314
:103C700015A9D1E8EF2F002A03D1C1E8E03F0028C1
:103C8000F7D15AD14E4E4B4D642200231B98B047BA
:103C9000002869D11998219B0068474D14AA16A9DC
:103CA000A8471B98454DA847DFF80891DFF838A1D1
:103CB000DFF810B1642200231A98B04700285BD1C6
:103CC0000CA8C047149919980CAB01AAD04700283A
:103CD0004CD01A98A8470C9D0DA9314B09A89847BC
:103CE0002946334B09AA10A8984709A8A0470DA850
:103CF000A047364B10A8984729E0A84771E70C9BCE
:103D00000DA945F8043F281D314B98471A982B4BB5
:103D100098470C9D0DA9224B09A898472946244B8A
:103D200009AA10A8984709A8A0470DA8A047274BA3
:103D300010A8984798E7C84768E723490CA8B047F8
:103D400010A8FF211A4B0CAA98470CA8A04716A848
:103D5000A04711A8A04706A8A047029D3846A04743
:103D6000284623B0BDE8F08FA8478DE71A98A847EA
:103D7000D8470DA8A0479DE7C8479BE710A8B047C4
:103D800028463A46134B10A9984710A8E4E700BF0D
:103D90000000000000000000000000003A010000E8
:103DA0000000000000000000000000004F000000C4
:103DB0000000000000000000000000000000000003
:103DC00000000000000000001901000000000000D9
:103DD00000000000000000000000000000000000E3
:103DE0000000000000000000000000002DE9F0418C
:103DF000044600F130070E4615464FF0FF334FF0F2
:103E0000FF3238460649884720462946054B40F888
:103E1000046B98473846BDE8F041034B184700BF94
:103E200000000000000000000000000038B504465B
:103E300000F130054FF0FF3207494FF0FF332846BD
:103E4000884724682846002CD4BF00240124034B53
:103E50009847204638BD00BF000000000000000069
:103E60002DE9F043D0F8146404460F4690461D46F1
:103E70008BB096B14A4B04A898474A4B04A8984780
:103E8000D4F81034211D19443246474B04A89847F2
:103E900038B90026454B05A8984730460BB0BDE819
:103EA000F0834FF00009424E03AB02AA01A904A817
:103EB000CDF80490B04706460028EAD0039BBB42E9
:103EC000E7D1029B3B4F012B1BD02846FC233A49EC
:103ED00040F8043B394B98472046D4F81024D4F8D6
:103EE0001414B847D4F810342BB94FF0FF32C4F88B
:103EF0000C34C4F80824D4F81C340133C4F81C343E
:103F0000C8E7019B042B05D02846FC232C4940F828
:103F1000043BDFE72B4B04A88DF800909847C0289E
:103F200031D19DF824301BB1DDE905239A4208D137
:103F300000238DF825302846FC23234940F8043B14
:103F4000C8E79B1A089AB2EBA30FF1D21F4B04A843
:103F500098479DF825308DF80000002BEBD04146A6
:103F60001B4B04A898470028E5D0D4F810242AB9A0
:103F70004FF0FF33C4F80C24C4F808342046D4F8BA
:103F80001414B84786E76A462946124B04A8984796
:103F90000028EAD12846FC230F4940F8043B99E762
:103FA0000000000000000000000000000000000011
:103FB00000000000000000006D0000000000000094
:103FC0008600000000000000A300000000000000C8
:103FD0000000000000000000C40000002DE9F04FC8
:103FE000012204468A4689B000F11403D3E8EF1F8A
:103FF000002903D1C3E8E02F0028F7D10CBF1546F4
:10400000002534D1DFF80081324D64220023E06ABC
:10401000C04700283BD1606A636C006804F110025D
:1040200004F118012C4DA8472C4EE06AB047DFF888
:10403000A490DFF8D8B064220023A06AC04700280B
:1040400045D1274B04A89847656A27692868D8474F
:1040500039465246234F286804ABB847224FC0B9AF
:10406000A06AB047214B984705A8B847E3E7204925
:10407000204B04A89847FF2120461F4B04AA9847CD
:10408000194B04A89847284609B0BDE8F08FA84707
:10409000BBE7049B05A945F8043F281D174B98472B
:1040A000A06AB047049D164B05A901A89847294668
:1040B000114B01AA2046984701A8B84705A8B84760
:1040C0002046104B984780F00100C0B2DCE7C8479B
:1040D000B1E700BF00000000000000000000000089
:1040E00000000000000000000000000000000000D0
:1040F00019010000000000000000000000000000A6
:1041000000000000000000000000000000000000AF
:104110002DE9F04FA3B00646039179B100F5087B75
:104120004FF0FF334FF0FF325846DFF8D081C047E1
:1041300096F834322BB95846604B984723B0BDE807
:10414000F08F002435695E495E4F09A8CDE9064429
:104150000894B8472B4653F8102BDFF8A49110A809
:10416000CDE90123DFF89CA1C84709A916A8CDE92C
:104170001444D047019A029B214619921A931422A3
:10418000514B24351CA81B95984703AB21931CA8C1
:104190004E4B98474E490CA8B8474E4DFF210CAAEC
:1041A00010A8A8474C4C0CA8A04709A8A0474B4B07
:1041B00006A910A89847002846D158463F4EB04758
:1041C00000238DF81430012315A9D1E8EF2F002A20
:1041D00003D1C1E8E03F0028F7D1019650D1404F0C
:1041E000642200231B98C04700285BD11998219BAB
:1041F00000683C4F14AA16A9B8471B982F4FB84720
:10420000DFF8DCB0642200231A98C047002853D19D
:104210000CA8C847344E149919980CAB05AAB0479E
:10422000002841D0019B1A9898470C9E0DA909A817
:10423000D047314609AA10A8A84709A8A0470DA849
:10424000A0472A4B10A824E0DDE906218A42B4D019
:10425000D6F81C32B3F5007F10D0D6F8143210789F
:1042600033441875D6F814320133C3F30803C6F883
:104270001432D6F81C320133C6F81C320132E5E79D
:104280001B490CA8B84710A8FF210CAAA847124B3D
:104290000CA8984716A8A04711A8A047154B06A838
:1042A00098474BE7B8479BE71A98B847124B98478F
:1042B000094B0DA89847A5E7D847A3E700000000E1
:1042C00044010000000000000000000000000000A9
:1042D0004F0000000000000000000000000000008F
:1042E00000000000000000000000000000000000CE
:1042F00019010000000000000000000000000000A4
:10430000000000000000000038B5044600F5087504
:104310000B494FF0FF324FF0FF3328468847D4F85F
:104320001C12C1F50071002902DD2046054B98479B
:10433000D4F81C422846044B9847204638BD00BF9D
:10434000000000000000000000000000F8B53E4A38
:1043500013680133012B136020D100253B4C3C4EE8
:104360001422294604F11000C4E90055E560B04765
:104370001422294604F12400B0471422294604F1EE
:104380003800B0474FF48472294604F15800C4E95C
:104390001355B0472F4B84F86051A3602E4A136821
:1043A0000133012B13601FD100254FF47A732B4C7E
:1043B0004FF40072C4E90153294B29462360234B73
:1043C000234E04F114002361B0471422294604F55A
:1043D0000870C4F81452C4F81852C4F81C52B047FC
:1043E0004FF48073A4F834321E4A13680133012B52
:1043F000136007D11C4B154A1A600022C3E907223B
:104400001A765A62FF220025184B1A71184AC3E91E
:1044100004559A60174ADD601A60174A1368013321
:10442000012B13600ED10326144C094FC4E900552B
:1044300004F108004FF484620021B847013E04F5FE
:104440008564F3D1F8BD00BF00000000000000004B
:10445000000000000000000000000000000000005C
:104460000800000000000000000000000000000044
:104470004D010000080000000000000000000000E6
:1044800008B5064A1368013B1360054A1368013BEF
:10449000136013B90348044B984708BD000000009F
:1044A000000000001C000000000000002DE9F04F9B
:1044B000DFF858B27B4DB5B05846A8470BF1140051
:1044C000A847ABF110040BF12800A8472046764B13
:1044D0009847764ECDE9080504F13808744D002858
:1044E00040F030814FF0FF324FF0FF334046B0478D
:1044F000A0684FF4E13103686E4FDB6998470820EC
:10450000B8476D49A268E060C0E900121420B847BE
:104510008146DFF8FCA1E068D0474A4642F8040B28
:104520001046664A904740F6F8204BF8109CB84772
:104530008146E068D047CA464AF8040B40F6F422A8
:104540005F4F50460899B8475E4F09F6F422394646
:1045500050460892A8470AF10C003946A847089A25
:104560000AF11C0A5245F2D10027C4F80490C9F898
:10457000F47A554B39464FF4FA7098470146206556
:1045800000220023CDE9062305234FF4FA72CDE97A
:104590000273CDE900774D4BDFF8789104974C48D2
:1045A000C847E0644B4B4C4998474C498DF84870DC
:1045B00015A8A8472368DFF8049122A80893C847E4
:1045C000474A15A9CDE9267728A89047089B1422C9
:1045D000CDE92B3B434B39462D932EA8384B9847BA
:1045E000099B2EA8984740491BA8A847DFF814A1AB
:1045F000FF211BAA22A8D0473C4B1BA898473C4B45
:1046000012A922A8984708B19DF84800012384F810
:1046100060018DF83C7027A9D1E8EF2F002A03D163
:10462000C1E8E03F0028F7D178D1324F642200235F
:104630002D98B047002840F093812B9B2E4F18688F
:1046400026AA2E4B28A99847DFF8A8A02D98DFF8B6
:10465000C8B0B8470897642200232C98B0470028B8
:1046600040F0C6811BA8C847254F26992B981BAB45
:104670000FAAB847002800F0B3812C981E4B98472A
:104680001B9F174B1CA918A8984739461D4B18AA01
:1046900022A89847154F18A8B8471CA8B8471A4B26
:1046A00022A844E00000000000000000000000001C
:1046B00000000000000000000800000000000000F2
:1046C00000000000000000000000000000000000EA
:1046D0005800000000000000540100005B010000D1
:1046E00000000000240000004F0000000000000057
:1046F00000000000000000000000000000000000BA
:104700000000000000000000000000001000000099
:1047100000000000000000000000000091491BA8FC
:10472000A84722A8FF211BAAD0478F4B1BA8984758
:104730008D4F28A8B84723A8B84715A8B8478B4875
:104740008B4B98478B4F8C488C4B38609847386818
:104750008B4903680DF1300A9B6A9847894B98474B
:1047600089495046A8474FF0FF324FF0FF337F484A
:10477000B04786490FA8A847854BCDF804A0009301
:1047800058F8382C834F143B0FA922A8B847824B06
:104790000DF12F0122A89847734F002846D09DF8AD
:1047A0002F30002B42D07D4912A8D4F80490A8479E
:1047B000514615A8DFF8FCA1D04712A918A8D04788
:1047C000D9F8F43A632B2BD809F1040B5846744BF3
:1047D00015A9984720BB15A91BA8D04718A91EA842
:1047E000D047704B704898472190D9F8F43A1BA9EC
:1047F0005A1CC9F8F42A1C2202FB03FA6B4B0BEB80
:104800000A0098470AF10C00684B1EA958449847C3
:10481000219BD144C9F81C301EA8B8471BA8B84733
:1048200018A8B84715A8B84712A8B847DFF8ACA130
:1048300022A8D0470FA8B8470DF130094B48DFF840
:1048400030B1D8474846B84759494846A8474FF07D
:10485000FF324FF0FF334548B0474C490FA8A847F7
:104860004B4BCDF80490009358F8382C494E143B2C
:104870000FA922A8B047484B0DF12F0122A8984755
:10488000394E002842D09DF82F30002B3ED04349AE
:1048900012A86468A8474946464D15A8A84712A91A
:1048A00018A8A847D4F8F43A632B29D804F10408CF
:1048B00040463B4B15A9984710BB15A91BA8A84714
:1048C00018A91EA8A8473C4B3C4898472190D4F80B
:1048D000F45A1BA96B1CC4F8F43A1C235D43334BF8
:1048E00008EB0500984705F10C00304B1EA9404429
:1048F0009847219B2C44E3611EA8B8471BA8B847E2
:1049000018A8B04715A8B04712A8B04722A8D047AA
:104910000FA8B0471548D847294C4846B04707204C
:104920000121284B9847E06808B1274B9847236935
:1049300043B9264B1020984705460E4B1968244B67
:1049400098472561234B206998470E4B6061984733
:10495000E06800284ED0204B35B0BDE8F04F184736
:10496000B84763E6190100000000000038000000AD
:104970000000000000000000000000000000000037
:10498000A086010000000000630100006901000032
:1049900024000000000000000000000000000000F3
:1049A0000000000000000000000000000000000007
:1049B0007401000000000000000000000000000082
:1049C00000000000000000000000000000000000E7
:1049D00000000000000000000000000000000000D7
:1049E0002C98089B9847D847044B1CA8984732E658
:1049F000D04730E635B0BDE8F08F00BF00000000C2
:104A00002DE9F84305460068042203684421DB6B66
:104A10009847286803681B699847042802D000203B
:104A2000BDE8F883286803685B6998478046286872
:104A300003685B69984786B2286846EA08260368D7
:104A4000C6F30D065B6998470446286803685B69EE
:104A5000984743F6FF7340EA0424A4B29E424FEA0B
:104A60009400DCD09842DAD0DFF85090C84711A308
:104A7000D3E90023DFF84880C0470B4F00220B4BDF
:104A8000B8470B4FB847A8603046C84704A3D3E9DE
:104A90000023C047B8476860A00B0130C0E700BFE3
:104AA00017BC5F3AEA3E793F000000000000444036
:104AB00000000000D042657052A0843F000000005A
:104AC000000000002DE9F04106460068442103681B
:104AD000DB6A98473068002103681B689847306894
:104AE000012103681B6B984798B923200B4FB847E7
:104AF0006525DFF82C803046C047013D15F0FF05E5
:104B000044B209D00120B847002CF4D02046BDE8BB
:104B1000F0814FF0FF34F9E72C46F7E70000000082
:104B2000000000000160704710B50446006803688B
:104B3000DB6998472046034B98470028D4BF0020E4
:104B4000012010BD0000000038B50E4B05460C4694
:104B50009847002814DDA8687CB90B4B98470B4C8C
:104B600000220B4BA04700220A4B0B4CA0470B4BDB
:104B700000220B4CA0470B4B984700EE100A38BDA3
:104B80000948FAE7000000000000000000000000F3
:104B900000002240000014400000000000004040DF
:104BA00000000000000000000000C07F014B024A2E
:104BB0001A6070470000000000000000024B034A2A
:104BC0001A6000221A717047000000000000000007
:104BD0006A21064B064A197206491A605961002279
:104BE0004FF480715A6019839A7670470000000074
:104BF0000000000000093D0030B54FF0C80C002453
:104C000001250277FF22C0E902C5C0E90A22022578
:104C1000C0E90C24816164224FF47A71C0E9045523
:104C2000C0E90E44C0E910120460848030BD000069
:104C3000532202490248034B184700BF00000000FE
:104C400000000000000000007047000038B5034677
:104C5000094C056820685A6803681178DB6A984730
:104C600001212068A9400368C9B21B6898472068E1
:104C700003685B6B984738BD0000000010B5094C15
:104C80004168236809781A681846D26A90472068F4
:104C9000002103681B689847206803685B6B98478E
:104CA00010BD00BF000000000022114B11491A7016
:104CB0005A709A70FF234A708A700B700E490A70FE
:104CC0004A708B700D490A708A704B700C498A705B
:104CD0000B704B700B494A700B708B700A490A704D
:104CE0000A4A4B708B70137053709370704700BFFB
:104CF00000000000000000000000000000000000B4
:104D000000000000000000000000000000000000A3
:104D10000368C9B21B6818477047036801211B6B01
:104D2000184710B403689C6B0123A4465DF8044B3C
:104D30006047B0F83A31B0F83E21981A80B2704717
:104D4000C0F850127047C0F84C12704707B5054BB9
:104D50008DF8071001220DF107012030984703B0AC
:104D60005DF804FB00000000014B2030184700BF35
:104D70000000000007B5084B01220DF1070100F506
:104D80009A70984720B19DF8070003B05DF804FBC6
:104D90004FF0FF30F9E700BF0000000008B5FF2327
:104DA00001220B701030024B9847002008BD00BF55
:104DB0000000000007B5084B01220DF1070100F5C6
:104DC0009A70984720B19DF8070003B05DF804FB86
:104DD0004FF0FF30F9E700BF0000000038B5C38A8C
:104DE000044663B1D0F8480204F1100583681B69DA
:104DF0000BB129469847002323616B60AB6038BD37
:104E00000346064AC1828261D0F8480203F11001CC
:104E10008368DB6803B11847704700BF00000000DB
:104E20000B4B99420FD00B4B99420ED00A4B994233
:104E300014BF01210321D0F84802836849001B6890
:104E400041F0100118470121F5E70221F3E700BF07
:104E5000A0860100801A060040420F000023F0B532
:104E600085B0428D0093C38C00F12A079B1A026B18
:104E70009BB2934200F12006044628BF13463946F0
:104E80006A463046104DA8470546009AD4F84802B5
:104E9000CDE901250222A38B8DF80C209DF80C2072
:104EA000816842F002028DF80C208C68012201A971
:104EB000A04704462A4639463046044B9847201EF0
:104EC00018BF012005B0F0BD000000000000000088
:104ED0002DE9F0430023054685B0009300F59A764E
:104EE000B5F8403100F59C77B0F838018846C01A13
:104EF000D5F8441180B20B1A934228BF1346184CC0
:104F00006A4639463046A047DFF85890044640B913
:104F1000224639463046C8470024204605B0BDE841
:104F2000F083009B002BF3D0CDE901340323D5F8A7
:104F300048028DF80C309DF80C30826843F0020373
:104F40008DF80C30956801A901224346A847054613
:104F5000224639463046C847002DDED0DCE700BF88
:104F6000000000000000000003460020C3E94A00E2
:104F7000C3F8300170470023C161C0E90933C0E9BB
:104F80004E33C362C0F8403170470000002230B594
:104F90004FF47A74C0E9012404460E4D44F8105BC6
:104FA0000261C4E90122C0E9921200F13401C0E9B2
:104FB00008124FF4807100F5A474C0E90A22C0E918
:104FC0004D42C0E94F22C0F850220163C0F844119D
:104FD00030BD00BF0800000013B5D0F850320446C1
:104FE0008DF807205BB1B4F83E21B0F83A01801A81
:104FF00080B2D4F84421411C914200D99847012243
:10500000054B0DF1070104F59A709847B0FA80F04E
:105010004009404202B010BD000000000A46024BA9
:1050200001461038184700BF0000000038B514468C
:105030000022D0F84C32C0E9092200F12005C262FA
:1050400003B19847FF230122237021462846024BD3
:105050009847002038BD00BF000000000A46024B00
:1050600001461038184700BF0000000008B5D0F80E
:1050700050223AB1B0F83A31B0F83E11581A80B225
:1050800000B19047002008BD0146014B1038184779
:105090000000000010B504490448054B9847BDE8DE
:1050A00010400449044818470000000000000000B8
:1050B0000000000000000000000000007047704782
:1050C00070470000F7B502AB03E906009DF8063013
:1050D00041F20104012B9DF8053005460E4618BF2C
:1050E0004FF480540BB944F010049DF80430022BA7
:1050F0001ED0032B1FD0012B01D144F004040E223B
:105100000E4FA8180021A4B2B84744F48073AB81B5
:105110000B4B0E229E4238BF1E460021AE6005F1A9
:105120002200B84744F400742C84EE6103B0F0BD53
:1051300044F00204E3E744F00604E0E70000000066
:1051400040420F0010B504464FF4A671014B98473A
:10515000204610BD00000000014640688368083109
:105160009B68184710B50C461946012388B0039375
:10517000079304ABCDE90042CDE904424068CDF885
:1051800008D00693836802AA1C6806ABA04708B043
:1051900010BD000013B501228DF80710064C00F178
:1051A00008030DF10701A0470028B4BF00209DF8B7
:1051B000070002B010BD00BF0000000013B50222BE
:1051C000ADF80610064C00F11C030DF10601A047D6
:1051D0000028B4BF0020BDF8060002B010BD00BF1B
:1051E0000000000010B4034C00F10803A4465DF871
:1051F000044B604700000000074B084A08495A600A
:1052000000221960C3F84821064B19600649C3F80B
:1052100048215960704700BF0000000000000000F6
:105220000800000000000000000000007047704708
:10523000704700207047431E013913F8012F11F801
:10524000010F0AB18242F8D0101A704770B50546B6
:105250000C46084649B1054B98472B680246214643
:105260002846BDE870405B68184770BD000000002C
:1052700008B5014B984708BD0000000038B5094D3E
:105280000446A847E060236820465B6998470028E9
:1052900007DAA847E368C01AA3689842F3D34FF02F
:1052A000FF3038BD00000000816070472DE9F041FB
:1052B00007460D460C46DFF81C808E18B44202D11A
:1052C000601BBDE8F0813846C047031EF8DB04F8D8
:1052D000013BF3E70000000000230A6802604A680F
:1052E000C1E9003342608A688B60826070470000C9
:1052F00010B50446006808B1014B9847204610BD20
:105300000000000010B50446006808B1034B984740
:105310000023C4E90133236010BD00BF000000007A
:1053200038B504460D460068034B0131984710B16B
:10533000C4E90005012038BD0000000010B5036875
:10534000044613B143688B4207D22046044B98476A
:1053500020B1A3680BB922681370012010BD00BFF3
:105360000000000070B50B4B0E4611460446154672
:10537000984720B92046084B9847204670BD2A46DA
:105380003146064B2068A560984700212268A36833
:10539000D154F2E70000000000000000000000000F
:1053A00038B5002304460D46C0E90033836039B1A7
:1053B0000846044B984729460246034B2046984727
:1053C000204638BD0000000000000000884238B5CB
:1053D00005460C460CD0074B0068984723682B60A5
:1053E000A368AB6063686B600023C4E9013323608A
:1053F00038BD00BF00000000884210B50B460446CF
:1054000004D0096821B19A68034B9847204610BD23
:10541000024B9847FAE700BF0000000000000000C0
:10542000002310B50446C0E900338360014B984760
:10543000204610BD0000000010B50446014B9847FF
:10544000204610BD0000000038B505460C4649B1A5
:105450000846064B984721460246054B2846984782
:10546000284638BD034B9847FAE700BF000000000C
:105470000000000000000000F8B5044616460F4684
:10548000856809B90020F8BD82B115442946084B4A
:1054900098470028F6D0A368206832461844394659
:1054A000044B984700222368A5605A550120EAE77B
:1054B000000000000000000007B5054B8DF8071044
:1054C00001220DF10701984703B05DF804FB00BF0E
:1054D00000000000034600680A46096828B911B1B7
:1054E000936843B919460846704739B99968002945
:1054F000F9D00178F7E709784942F4E7004B1847FB
:105500000000000008B582688B689A4205D1044B00
:105510009847B0FA80F0400908BD0020FCE700BFC2
:105520000000000008B582682AB959B10878B0FABD
:1055300080F0400908BD006809B90078F7E7024B20
:105540009847F4E70120F5E70000000070470000ED
:1055500038B5054B9847054B9847054B9847054D7F
:10556000054CA847A047FCE7000000000000000031
:10557000000000000000000000000000012838BF0B
:105580000120014B184700BF00000000004B1847E6
:105590000000000008467047004B1847000000005C
:1055A0002DE9F04F154C164E164FDFF85C8089B090
:1055B0002546B54204F1300402D309B0BDE8F08FAE
:1055C00014ED027B54E90C0154E90A2354E908CE96
:1055D00054E9069A54F810BC8DED067BCDE903AB77
:1055E000CDE901E9CDF800C0B84754F8300C54F8C3
:1055F0000C1CC04754F8303C5D65D9E70000000042
:1056000000000000000000000000000003460A4601
:1056100019790123006803FA01F103691B68194233
:1056200003D022B183681B6903E0002AFAD08368A3
:10563000DB681847034670B40C46DA8800681979AD
:105640002243012405698C402B6812F0010F866803
:1056500014BF2343A3432B60336870BC184700007A
:10566000004B184700000000032911D8DFE801F0C3
:10567000020D090B4FF48031064B03EBC000064BC3
:1056800018470649F8E70649F6E74FF4C021F3E763
:10569000704700BF48030000000000001000010038
:1056A00020000100024B03EBC000024B184700BF73
:1056B00048030000000000000A21A0FB0101014B8B
:1056C000184700BF0000000010B5034B9847034C7B
:1056D0000A220023A04710BD0000000000000000C7
:1056E00070B586B004461422294B002101A89847C2
:1056F00002230E2C0DEB03020493039239D00F2CDE
:1057000039D0102C06D0112C37D0122C37D0132CB6
:1057100037D105231F491A0101EB0314A67B102E74
:1057200032D88D58AB68063228461B68114498471A
:1057300000281CDB012322798DF81460934002932A
:10574000E37B8DF81530AB6828465B6801A9984764
:1057500000280CDB104B9DF814201B68BDF80200DC
:105760009A4204D0CBBFD21A9B1A1041984006B07F
:1057700070BD0023CEE70123CCE70323CAE704234F
:10578000C8E76FF01500F2E76FF08500EFE700BFA4
:1057900000000000E8020000140000008368DB69DC
:1057A00003B118477047036840F213421B6A184759
:1057B000704707B503688DF8071001225B680DF18B
:1057C0000701984703B05DF804FB01207047000013
:1057D000004B184700000000004908470000000087
:1057E00037B5044600F1D4054FF0FF324FF0FF33D8
:1057F00028460A4988470A4B04F1800001220DF12E
:10580000070198470446074B284698471CB19DF866
:10581000070003B030BD4FF0FF30FAE70000000092
:10582000000000000000000037B5044600F1D40578
:105830004FF0FF324FF0FF3328460A4988470A4BA2
:1058400004F1800001220DF1070198470446074B3F
:10585000284698471CB19DF8070003B030BD4FF0B3
:10586000FF30FAE700000000000000000000000028
:1058700038B5044600F16805284608494FF0FF3264
:105880004FF0FF338847228C238B646A9B1A9BB2AC
:105890002846E41A024B9847204638BD0000000015
:1058A0000000000070B5054600F1D4064FF0FF324D
:1058B000304607494FF0FF338847B5F88A30B5F8CE
:1058C00086403046E41AA4B2024B9847204670BD89
:1058D0000000000000000000002337B58DF80730FD
:1058E00002F00F03012B0446009143D0991E4B4256
:1058F0004B418DF8043002F0F003202B3CD0302BCC
:105900000CBF0323012302F47062B2F5007F8DF80F
:10591000053033D0B2F5407F32D0B2F5807F0CBF76
:105920000023032320698DF806308368DB680BB100
:10593000694698472069836823B19B6C13B122465E
:105940001049984704F1D4054FF0FF3228460E491C
:105950004FF0FF33884700232846C4E92133C4F8B9
:105960008C300A4B9847206983689B6A03B198473B
:1059700003B030BD0223BCE70223C4E70123D1E713
:105980000223CFE70000000000000000000000003C
:1059900038B50446084D628BE38B9A4207D1064D19
:1059A000206983681B6B0BB1984710B138BDA847BD
:1059B000F1E7A847F4E700BF000000002DE9F84F29
:1059C0000446884615460026DFF85890DFF858B0A0
:1059D00004F168074FF0FF324FF0FF333846C847F5
:1059E000AA1B08EB06010C4B04F1140098478246F1
:1059F0003846D8475644BAF1000F04D12069074B06
:105A00009847074B9847B542E2D12069034B984726
:105A10002846BDE8F88F00BF00000000000000002D
:105A20000000000000000000000000002DE9F34726
:105A30000446006983685B6C43BB04F1D406002212
:105A4000002330462F4DA8472F4F206983685B6B9A
:105A500013BB206983689B6913BB304604F1680758
:105A60002A4EB047002200233846A847628BE38BBA
:105A70009A4204D1206983681B6A03B19847DFF812
:105A80009090DFF890A004F114081BE098470028DC
:105A9000D3D102B0BDE8F08798470028D9D1DCE720
:105AA000082269469847021ED7DD082AA8BF0822A7
:105AB000694604F18000B8470028C6DACDE7694698
:105AC0004046D047206983685B6ABBB9658BE38B2E
:105AD000ED1AADB27DB1082D28BF082569462A46CA
